:100000000C942A000C9434000C9434000C943400AA
:100010000C9434000C9434000C9434000C94340090
:100020000C9434000C9434000C9434000C94340080
:100030000C9434000C9434000C9434000C94340070
:100040000C9434000C9434000C9434000C94340060
:100050000C94340011241FBECFE5D8E0DEBFCDBF25
:100060000E9436000C945E000C9400000E94520026
:100070000E9456000E9446000E945A00811103C04F
:100080000E944A00F9CF0E944E00F6CF84B38160EF
:1000900084BB089585B3816085BB089585B38E7F49
:1000A00085BB089584B38D7F84BB089585B382603A
:1000B00085BB089583B3869581700895F894FFCF2A
:00000001FF
