S00D00007461736B322E7372656332
S11300000C942A000C943F000C943F000C943F0085
S11300100C943F000C943F000C943F000C943F0060
S11300200C943F000C943F000C943F000C943F0050
S11300300C943F000C943F000C943F000C943F0040
S11300400C943F000C943F000C943F000C943F0030
S11300500C943F0011241FBECFE5D8E0DEBFCDBF16
S113006010E0A0E6B0E0E0EAF0E002C005900D92F6
S1130070AA36B107D9F70E9441000C944E000C94A3
S113008000001ABA17BA8FEF84BBE9B386B3E80F3E
S1130090F0E0E05AFF4F808185BBF7CFF894FFCFA3
S10D00A03F065B4F666D7D47FF6F5E
S9030000FC
