S00D00007461736B342E7372656330
S11300000C942A000C9447000C9447000C9447006D
S11300100C9447000C9447000C9447000C94470040
S11300200C9447000C9447000C9447000C94470030
S11300300C9447000C9447000C9447000C94470020
S11300400C9447000C9447000C9447000C94470010
S11300500C94470011241FBECFE5D8E0DEBFCDBF0E
S113006010E0A0E6B0E0E4E1F4E002C005900D92F7
S1130070AE38B107D9F720E0AEE8B0E001C01D9278
S1130080A039B207E1F70E9494010C9408020C9481
S11300900000CF93DF938FE081BB8FEF82BB60E0E2
S11300A07AE045C092B3A62FB0E041E050E0062EBE
S11300B002C0440F551F0A94E2F7842F80959823B9
S11300C092BB94E02EC020B3E92FF0E030E0092E7B
S11300D002C0359527950A94E2F7822F817020FD9E
S11300E01DC00FC080B390E00E2E02C09595879579
S11300F00A94E2F78170C9EFD0E02197F1F700C0CC
S11301000000882379F33497AA0FBB1FAA0FBB1FE3
S1130110A05ABF4FEA0FFB1F708105C07A3019F453
S11301209F5F983080F282B3482B42BB6F5F64308C
S113013008F4B8CF872FDF91CF91089585BB8BB397
S11301408E7F8BBB8BB382608BBB00008BB38D7FA8
S11301508BBB8DEE92E00197F1F700C0000008958B
S11301608FEF8ABB84BB87E893E10197F1F700C066
S1130170000088E30E949E008CE00E949E0086E0BE
S11301800E949E0081E00E949E0080E80E949E00E2
S1130190089585BB8BB381608BBB8BB382608BBBB3
S11301A000008BB38D7F8BBB89EF90E00197F1F753
S11301B000C0000008951F93CF93DF93EC0110E07B
S11301C007C0FE01E80FF91F80810E94C9001F5F6C
S11301D0812F90E0FE0101900020E9F73197EC1B9C
S11301E0FD0B8E179F0768F3DF91CF911F91089540
S11301F080EC0E949E00089581E00E949E00089574
S113020090917000903371F490918F00990F292F81
S1130210220F220F920F980F905390938F000E94F9
S1130220C900089590918E00990F292F220F220F53
S1130230920F980F905390938E000E94C9000895D6
S1130240809170008B3249F018F48A32B1F025C0E5
S11302508D3259F08F32C9F020C020918F008091E7
S11302608E0090E0820F911D089580918F0090E0A0
S113027020918E00821B9109089580918F009091A6
S11302808E00899FC0011124089580918F00609190
S11302908E000E94D40190E0089580918F0090E038
S11302A008950F931F93CF93DF93CDB7DEB7649771
S11302B00FB6F894DEBF0FBECDBF00E010E013C050
S11302C06AE070E00E94E001F801EE0FFF1F21E0F8
S11302D030E02C0F3D1FE20FF31F918380830F5FEB
S11302E01F4F862F972F009759F7015011090FC000
S11302F0F801EE0FFF1F81E090E08C0F9D1FE80FC7
S1130300F91F8081805D0E94C900015011091123E9
S11303107CF764960FB6F894DEBF0FBECDBFDF91B5
S1130320CF911F910F9108950E94B00081E790E052
S11303300E94DB000E94F80081E890E00E94DB004C
S11303402FE38DE093E0215080409040E1F700C01E
S113035000000E94FC000E9449008A30E1F38334CB
S113036051F410928F0010928E0080E380937000FD
S11303700E94FC00F0CF8F3231F08B3221F08D32AD
S113038011F08A3229F4809370000E94C900E3CFEF
S11303908D3339F40E94C9000E9420010E9451014A
S11303A0DACF0E940001D7CF991B79E004C0991FCE
S11303B0961708F0961B881F7A95C9F780950895BB
S11303C097FB072E16F4009407D077FD09D00E94FE
S11303D0F40107FC05D03EF4909581959F4F089554
S11303E0709561957F4F0895AA1BBB1B51E107C00F
S11303F0AA1FBB1FA617B70710F0A61BB70B881FB1
S1130400991F5A95A9F780959095BC01CD0108953F
S1070410F894FFCF8A
S11304143738392F3435362A3132332D43303D2B96
S113042430536F6D69636F6C6F6E205461736B34FA
S1110434004D656E616D20656C626168790033
S9030000FC
