S00D00007461736B332E7372656331
S11300000C942A000C943F000C943F000C943F0085
S11300100C943F000C943F000C943F000C943F0060
S11300200C943F000C943F000C943F000C943F0050
S11300300C943F000C943F000C943F000C943F0040
S11300400C943F000C943F000C943F000C943F0030
S11300500C943F0011241FBECFE5D8E0DEBFCDBF16
S113006010E0A0E6B0E0E4EBF0E002C005900D92F1
S1130070AA36B107D9F70E9441000C9458000C9499
S113008000008FEF84BB80E02FE33DE093E021503C
S113009030409040E1F700C000008F5F8A3009F4DF
S11300A080E0E82FF0E0E05AFF4F908195BBECCF61
S10700B0F894FFCFEE
S10D00B43F065B4F666D7D47FF6F4A
S9030000FC
